:020000040000FA
:100000000A128A11FC2FFF1B0D2883137F188317F8
:100010000008840A0319FF0A080000308A00040857
:10002000840A82070034773461347434653472345E
:1000300020346C346534763465346C343A3433347B
:100040002F3434342034463455344C344C3400345A
:100050007734613474346534723420346C346534EC
:10006000763465346C343A34203451345534413468
:100070005234543445345234003477346134743457
:100080006534723420346C346534763465346C34C1
:100090003A34203445344D345034543459340034D7
:1000A0007734613474346534723420346C3465349C
:1000B000763465346C343A342034483441344C342A
:1000C0004634003477346134743465347234203407
:1000D0006C346534763465346C343A3420344634C8
:1000E00055344C344C3400344634413455344C345B
:0400F0005434003450
:10075A0001300A128A1170240A128A110800F5015E
:10076A00CB2B75087207840073080318730AFF00FD
:10077A000A128A1103200A128A110A128A110C24F7
:10078A000A128A110130F4007408F5077508720715
:10079A00840073080318730A83120313FF000A12F2
:1007AA008A1103200A128A11003A031DDD2BDE2B5F
:1007BA00B62B0800FE30F200720883160313860572
:1007CA00FD30F20072088605FB30F20072088605D9
:1007DA000708F039FF3AF2007208870502300A1258
:1007EA008A1170240A128A1128300A128A11702476
:1007FA000A128A110C300A128A1170240A128A11FA
:10080A0001300A128A1170240A128A110800F100B2
:10081A00831203130614FD30F00070088605C730F2
:10082A00F000172CF00B162C1A2C1B2C8312031316
:10083A000615C730F000212CF00B202C242C252C77
:10084A00F0307105F0008312031307080F397004A2
:10085A008700C730F000312CF00B302C342C352CAB
:10086A00FB30F0007008831203138605C730F000CE
:10087A003E2CF00B3D2C412C422C831203130615FF
:10088A00C730F000482CF00B472C4B2C4C2C71082D
:10089A000F39F00004300310F00DFF3E031D502CF9
:1008AA008312031307080F3970048700C730F0005A
:1008BA005E2CF00B5D2C612C622CFB30F000700872
:1008CA00831203138605C730F0006B2CF00B6A2CD9
:1008DA006E2C6F2C0800F100FE30F00070088312B5
:1008EA0003138605FD30F00070088605C730F00056
:1008FA007E2CF00B7D2C812C822C8312031306157F
:10090A00C730F000882CF00B872C8B2C8C2CF03005
:10091A007105F0008312031307080F39700487006A
:10092A00C730F000982CF00B972C9B2C9C2CFB309A
:10093A00F0007008831203138605C730F000A52C57
:10094A00F00BA42CA82CA92C831203130615C7306C
:10095A00F000AF2CF00BAE2CB22CB32C71080F396F
:10096A00F00004300310F00DFF3E031DB72C831274
:10097A00031307080F3970048700C730F000C52C2D
:10098A00F00BC42CC82CC92CFB30F0007008831261
:10099A0003138605C730F000D22CF00BD12CD52CCE
:1009AA00D62C0800F400852D7103031DDD2CDE2CE6
:1009BA00EE2C0130F200700AE42C0310F20DFF3E17
:1009CA00031DE22C7208F3007308831203138504D3
:1009DA009B2D7108031DF22CF32C9B2D0130F20084
:1009EA00700AF92C0310F20DFF3E031DF72C720852
:1009FA00FF3AF30073088312031385059B2D7103D5
:100A0A00031D082D092D192D0130F200700A0F2D32
:100A1A000310F20DFF3E031D0D2D7208F30073083B
:100A2A008312031386049B2D7108031D1D2D1E2D91
:100A3A009B2D0130F200700A242D0310F20DFF3EA7
:100A4A00031D222D7208FF3AF30073088312031361
:100A5A0086059B2D7103031D332D342D442D013042
:100A6A00F200700A3A2D0310F20DFF3E031D382DD5
:100A7A007208F30073088312031387049B2D71080D
:100A8A00031D482D492D9B2D0130F200700A4F2D70
:100A9A000310F20DFF3E031D4D2D7208FF3AF300BD
:100AAA0073088312031387059B2D7103031D5E2DA3
:100ABA005F2D6F2D0130F200700A652D0310F20DC3
:100ACA00FF3E031D632D7208F3007308831203139C
:100ADA0088049B2D7108031D732D742D9B2D0130E5
:100AEA00F200700A7A2D0310F20DFF3E031D782DD5
:100AFA007208FF3AF30073088312031388059B2DCB
:100B0A007408F200F3017308003A03198D2D9B2D26
:100B1A007208003A0319D92C013A0319042D033A31
:100B2A0003192F2D013A03195A2D9B2D0800F400A1
:100B3A00932E0130F200700AA42D0310F20DFF3E2D
:100B4A00031DA22D7208F30073088316031385048C
:100B5A00AC2E0130F200700AB42D0310F20DFF3EE4
:100B6A00031DB22D7208FF3AF300730883160313AC
:100B7A008505AC2E7108F200F3017308003A0319D7
:100B8A00C72DAC2E7208003A03199E2D013A03199B
:100B9A00AE2DAC2E0130F200700AD52D0310F20DE5
:100BAA00FF3E031DD32D7208F30073088316031347
:100BBA008604AC2E0130F200700AE52D0310F20D06
:100BCA00FF3E031DE32D7208FF3AF30073088316F4
:100BDA0003138605AC2E7108F200F3017308003A7C
:100BEA000319F82DAC2E7208003A0319CF2D013AD9
:100BFA000319DF2DAC2E0130F200700A062E031005
:100C0A00F20DFF3E031D042E7208F30073088316CB
:100C1A0003138704AC2E0130F200700A162E03105B
:100C2A00F20DFF3E031D142E7208FF3AF3007308FB
:100C3A00831603138705AC2E7108F200F3017308BB
:100C4A00003A0319292EAC2E7208003A0319002E15
:100C5A00013A0319102EAC2E0130F200700A372E19
:100C6A000310F20DFF3E031D352E7208F3007308C0
:100C7A00831603138804AC2E0130F200700A472E43
:100C8A000310F20DFF3E031D452E7208FF3AF300D2
:100C9A007308831603138805AC2E7108F200F3015A
:100CAA007308003A03195A2EAC2E7208003A031937
:100CBA00312E013A0319412EAC2E0130F200700A8E
:100CCA00682E0310F20DFF3E031D662E7208F30014
:100CDA007308831603138904AC2E0130F200700ADC
:100CEA00782E0310F20DFF3E031D762E7208FF3A8E
:100CFA00F3007308831603138905AC2E7108F200FA
:100D0A00F3017308003A03198B2EAC2E7208003ACD
:100D1A000319622E013A0319722EAC2E7408F200DE
:100D2A00F3017308003A03199B2EAC2E7208003A9D
:100D3A000319BF2D013A0319F02D033A0319212E85
:100D4A00013A0319522E073A0319832EAC2E0800D2
:100D5A000A128A11DF230A128A11F001F101033003
:100D6A000A128A119C250A128A11F001F00AF1016D
:100D7A0003300A128A119C250A128A110230F600DF
:100D8A007608F000F10103300A128A119C250A1232
:100D9A008A110330F6007608F000F10103300A12D6
:100DAA008A119C250A128A110430F6007608F0008E
:100DBA00F101F10A03300A128A119C250A128A11DA
:100DCA000430F6007608F000F10103300A128A11A5
:100DDA00D7240A128A118312031308080F39031D34
:100DEA00F72EF82E1B2F0430F6007608F000F101DA
:100DFA00F10A03300A128A11D7240A128A110A1236
:100E0A008A11AD230A128A112B30F2008030F300C6
:100E1A000A128A11B4230A128A11831203130808C8
:100E2A000F390319192F1A2F122FF02E0F30080518
:100E3A00F60008307606031D232F242F4A2F04308C
:100E4A00F6007608F000F101F10A03300A128A115D
:100E5A00D7240A128A110A128A11AD230A128A1198
:100E6A001630F2008030F3000A128A11B4230A12F3
:100E7A008A110F30831203130805F600083076062C
:100E8A000319482F492F3E2FF02E0F300805F60080
:100E9A000C307606031D522F532F792F0430F6009B
:100EAA007608F000F101F10A03300A128A11D724F8
:100EBA000A128A110A128A11AD230A128A113E30C5
:100ECA00F2008030F3000A128A11B4230A128A113E
:100EDA000F30831203130805F6000C307606031947
:100EEA00772F782F6D2FF02E0F300805F6000E3071
:100EFA007606031D812F822FB12F0430F600760863
:100F0A00F000F101F10A03300A128A11D7240A12F9
:100F1A008A110A128A11AD230A128A110130F200CB
:100F2A008030F3000A128A11B4230A128A110F3090
:100F3A00831203130805F6000F3076060319A62F4D
:100F4A00A72F9C2F0F300805F6000E3076060319DE
:100F5A00AF2FB02FA72FF02E0F300805F6000F3055
:100F6A007606031DB92FBA2FDF2F0430F600760854
:100F7A00F000F10103300A128A11D7240A128A11E9
:100F8A000A128A11AD230A128A115030F2008030F7
:100F9A00F3000A128A11B4230A128A110F3083123B
:100FAA0003130805F6000F3076060319DD2FDE2F2E
:100FBA00D32FF02E0430F6007608F000F10102304B
:100FCA000A128A11D7240A128A110A128A11AD2327
:100FDA000A128A116230F2008030F3000A128A1172
:100FEA00B4230A128A11F02E0A128A1100288301E8
:060FFA000A128A11AD2E5F
:02400E00F33F7E
:00000001FF
