:100000000C942A000C943F000C943F000C943F0089
:100010000C943F000C943F000C943F000C943F0064
:100020000C943F000C943F000C943F000C943F0054
:100030000C943F000C943F000C943F000C943F0044
:100040000C943F000C943F000C943F000C943F0034
:100050000C943F0011241FBECFE5D4E0DEBFCDBF1E
:1000600010E0A0E6B0E0E2E7F6E002C005900D92F5
:10007000A03DB107D9F70E94B0020C9437030C944D
:100080000000813001F130F08230B1F1833009F4A9
:100090004CC0089541110CC02AB381E090E002C029
:1000A000880F991F6A95E2F7809582238ABB08958D
:1000B0002AB381E090E002C0880F991F6A95E2F7A9
:1000C000822B8ABB089541110CC027B381E090E0D8
:1000D00002C0880F991F6A95E2F78095822387BB3B
:1000E000089527B381E090E002C0880F991F6A95B8
:1000F000E2F7822B87BB089541110CC024B381E045
:1001000090E002C0880F991F6A95E2F780958223DC
:1001100084BB089524B381E090E002C0880F991F4A
:100120006A95E2F7822B84BB089541110CC021B37C
:1001300081E090E002C0880F991F6A95E2F78095F0
:10014000822381BB089521B381E090E002C0880F33
:10015000991F6A95E2F7822B81BB0895813011F1D6
:1001600030F08230D1F1833009F452C0089541302B
:1001700059F42BB381E090E002C0880F991F6A9573
:10018000E2F7822B8BBB089541115CC02BB381E059
:1001900090E002C0880F991F6A95E2F7809582234C
:1001A0008BBB0895413059F428B381E090E002C040
:1001B000880F991F6A95E2F7822B88BB0895411139
:1001C00041C028B381E090E002C0880F991F6A9572
:1001D000E2F78095822388BB0895413059F425B316
:1001E00081E090E002C0880F991F6A95E2F7822BA8
:1001F00085BB0895411126C025B381E090E002C07F
:10020000880F991F6A95E2F78095822385BB089530
:10021000413059F422B381E090E002C0880F991F69
:100220006A95E2F7822B82BB089541110BC022B37D
:1002300081E090E002C0880F991F6A95E2F78095EF
:10024000822382BB0895813089F028F08230C9F082
:10025000833011F12CC029B381E090E002C0880FF7
:10026000991F6A95E2F7822389BB089526B381E03E
:1002700090E002C0880F991F6A95E2F7822386BB3F
:10028000089523B381E090E002C0880F991F6A951A
:10029000E2F7822383BB089520B381E090E002C09F
:1002A000880F991F6A95E2F7822380BB089580E04A
:1002B00008950E94130308950F931F93CF93DF9324
:1002C0008C01EB0180E690E00E9421032FE38DE09A
:1002D00093E0215080409040E1F700C000008DE0A5
:1002E0000E941D032FE38DE093E021508040904059
:1002F000E1F700C0000083E690E00E9421032FE3B5
:100300008DE093E0215080409040E1F700C0000074
:100310008DE00E941D038DE690E00E9421032FE3F3
:100320008DE093E0215080409040E1F700C0000054
:1003300082E20E941D032FE38DE093E02150804074
:100340009040E1F700C00000C8010E9421032FE3A4
:100350008DE093E0215080409040E1F700C0000024
:1003600082E20E941D032FE38DE093E02150804044
:100370009040E1F700C000008DE00E941D03CE0117
:100380000E9421032FE38DE093E0215080409040B4
:10039000E1F700C000008DE00E941D032FE38DE017
:1003A00093E0215080409040E1F700C000008AE1D6
:1003B0000E941D032FE38DE093E021508040904088
:1003C000E1F700C000008DE00E941D038DE00E9457
:1003D0001D038DE00E941D03DF91CF911F910F91AE
:1003E0000895A898A998E9EFF0E03197F1F700C0D7
:1003F0000000AA9AE9EFF0E03197F1F700C00000A1
:1004000095B3282F207F9F70922B95BBE9EFF0E0EA
:100410003197F1F700C00000AA98E9EFF0E03197BA
:10042000F1F700C00000AA9A25B3F0E18F9FC00148
:100430001124922F9F70892B85BB89EF90E0019743
:10044000F1F700C00000AA98E9EFF0E03197F1F76A
:1004500000C000000895A89AA998E9EFF0E031974C
:10046000F1F700C00000AA9AE9EFF0E03197F1F748
:1004700000C0000095B3282F207F9F70922B95BB62
:10048000E9EFF0E03197F1F700C00000AA98E9EF3A
:10049000F0E03197F1F700C00000AA9A25B3F0E12F
:1004A0008F9FC0011124922F9F70892B85BB89EFEC
:1004B00090E00197F1F700C00000AA98E9EFF0E0A2
:1004C0003197F1F700C0000008950F931F93CF9369
:1004D000FC018081882359F08F01C0E00E942B022B
:1004E000CF5FF801EC0FF11D80818111F7CFCF9123
:1004F0001F910F91089581E00E94F101089584B346
:10050000876084BB84B3806F84BB82E00E94F1016A
:1005100088E20E94F1018EE00E94F1010E947B02BC
:100520000895813031F060F0823029F0833029F075
:1005300006C0605C05C0605F03C0605B01C060E036
:10054000862F80680E94F1010895CF93DF93EA011E
:100550000E949102CE010E946502DF91CF91089521
:100560000E947F020E94590140E060E080E00E940A
:10057000410041E061E080E00E94410040E061E034
:1005800080E00E94AE0041E062E083E00E94410012
:1005900040E062E083E00E94AE0060E080E00E9404
:1005A0002301813019F50E947B0286E790E00E94CA
:1005B000650246E850E060E081E00E94A50241E06B
:1005C00061E080E00E94AE0041E062E083E00E94D2
:1005D000AE0065E970E08EEA90E00E945C0160E0A8
:1005E00080E00E9423018130D1F3D7CF60E080E02A
:1005F0000E9423018111D1CF0E947B028DEB90E0FC
:100600000E94650240E061E080E00E94AE0040E0B0
:1006100062E083E00E94AE0060E080E00E9423017F
:100620008823D1F3BACF82E08BB988E18AB986E812
:1006300080BD10BC8CE089B908955D9BFECF8CB95C
:1006400008950F931F93CF93FC018081882359F065
:100650008F01C0E00E941D03CF5FF801EC0FF11D78
:1006600080818111F7CFCF911F910F910895F89458
:02067000FFCFBA
:1006720041540041542B434D47463D310041542BD8
:1006820043474D533D00476173206973206465748D
:1006920065637465640074686572652069732066B9
:1006A20069726520006669726520696E20746865EA
:1006B200207374617220666163746F7279003032E4
:1006C20030303130333237373536313100476173AC
:1006D200206973204E4F20646574656374656400FD
:00000001FF
