S0140000766F74696E6753797374656D2E73726563F4
S11300000C942A000C94F0020C9419030C944700ED
S11300100C9447000C9447000C9447000C94470040
S11300200C9447000C9447000C9447000C94470030
S11300300C9447000C9447000C9447000C94470020
S11300400C9447000C9447000C9442030C94470012
S11300500C94470011241FBECFE5D4E0DEBFCDBF12
S113006010E0A0E6B0E0EEE1F9E002C005900D92E8
S1130070A23AB107D9F720E0A2EAB0E001C01D928C
S1130080AB3AB207E1F70E94E4030C948D040C949C
S11300900000FC018081813009F471C038F08230A5
S11300A009F4D6C0833009F43CC1089582818823C1
S11300B019F08130D1F108952AB381E090E00180F4
S11300C002C0880F991F0A94E2F7809582238ABBA5
S11300D08381813089F018F08230D9F008952BB3F0
S11300E081E090E0018002C0880F991F0A94E2F732
S11300F0809582238BBB08952BB381E090E001802F
S113010002C0880F991F0A94E2F7809582238BBB63
S113011008952BB381E090E0018002C0880F991FFD
S11301200A94E2F7822B8BBB08952AB381E090E016
S1130130018002C0880F991F0A94E2F7822B8ABBC0
S11301408481882379F0813009F052C12BB381E096
S113015090E0018002C0880F991F0A94E2F7822B75
S11301608BBB08952BB381E090E0018002C0880F1F
S1130170991F0A94E2F7809582238BBB08958281AC
S1130180882319F08130D1F1089527B381E090E0FC
S1130190018002C0880F991F0A94E2F78095822398
S11301A087BB8381813089F018F08230D9F00895BB
S11301B028B381E090E0018002C0880F991F0A945F
S11301C0E2F78095822388BB089528B381E090E00C
S11301D0018002C0880F991F0A94E2F78095822358
S11301E088BB089528B381E090E0018002C0880FA5
S11301F0991F0A94E2F7822B88BB089527B381E004
S113020090E0018002C0880F991F0A94E2F7822BC4
S113021087BB8481882379F0813009F0E9C028B351
S113022081E090E0018002C0880F991F0A94E2F7F0
S1130230822B88BB089528B381E090E0018002C03E
S1130240880F991F0A94E2F78095822388BB08954A
S11302508281882319F08130D1F1089524B381E09B
S113026090E0018002C0880F991F0A94E2F78095FC
S1130270822384BB8381813089F018F08230D9F0E5
S1130280089525B381E090E0018002C0880F991F92
S11302900A94E2F78095822385BB089525B381E013
S11302A090E0018002C0880F991F0A94E2F78095BC
S11302B0822385BB089525B381E090E0018002C0CC
S11302C0880F991F0A94E2F7822B85BB089524B303
S11302D081E090E0018002C0880F991F0A94E2F740
S11302E0822B84BB8481882379F0813009F080C01B
S11302F025B381E090E0018002C0880F991F0A9421
S1130300E2F7822B85BB089525B381E090E001805C
S113031002C0880F991F0A94E2F78095822385BB57
S113032008958281882319F08130D1F1089521B391
S113033081E090E0018002C0880F991F0A94E2F7DF
S11303408095822381BB8381813089F018F08230CB
S1130350D9F0089522B381E090E0018002C0880FB3
S1130360991F0A94E2F78095822382BB089522B3F1
S113037081E090E0018002C0880F991F0A94E2F79F
S11303808095822382BB089522B381E090E00180AE
S113039002C0880F991F0A94E2F7822B82BB08954A
S11303A021B381E090E0018002C0880F991F0A9474
S11303B0E2F7822B81BB8481882371F08130C1F400
S11303C022B381E090E0018002C0880F991F0A9453
S11303D0E2F7822B82BB089522B381E090E0018092
S11303E002C0880F991F0A94E2F78095822382BB8A
S11303F00895813019F130F08230E1F1833009F44D
S113040055C00895442319F0413069F008952BB381
S113041081E090E002C0880F991F6A95E2F7809509
S113042082238BBB08952BB381E090E002C0880F38
S1130430991F6A95E2F7822B8BBB0895442319F028
S1130440413069F0089528B381E090E002C0880F3C
S1130450991F6A95E2F78095822388BB089528B393
S113046081E090E002C0880F991F6A95E2F7822B21
S113047088BB0895442319F0413069F0089525B3E9
S113048081E090E002C0880F991F6A95E2F7809599
S1130490822385BB089525B381E090E002C0880FD4
S11304A0991F6A95E2F7822B85BB0895442319F0BE
S11304B0413069F0089522B381E090E002C0880FD2
S11304C0991F6A95E2F78095822382BB089522B32F
S11304D081E090E002C0880F991F6A95E2F7822BB1
S11304E082BB0895813079F028F08230A9F08330FE
S11304F0E1F024C089B390E002C0959587956A9590
S1130500E2F78170089586B390E002C095958795CF
S11305106A95E2F78170089583B390E002C09595DF
S113052087956A95E2F78170089580B390E002C0E0
S1130530959587956A95E2F78170089580E008950E
S1130540FC018081813091F018F0823019F1089516
S1130550828193819093A3008093A20085B78C7FBE
S113056085BF95B78181892B85BF08958281938149
S11305709093A5008093A40085B7837F85BF25B79A
S11305809181892F90E0880F991F880F991F822BE2
S113059085BF0895828193819093A7008093A600DC
S11305A08181823019F0833029F0089584B78F7BDC
S11305B084BF089584B7806484BF0895813041F076
S11305C018F0823049F008958BB780648BBF08958A
S11305D08BB780688BBF08958BB780628BBF0895FB
S11305E01F920F920FB60F9211242F933F934F93A4
S11305F05F936F937F938F939F93AF93BF93EF9387
S1130600FF93E091A200F091A300309709F00995BF
S1130610FF91EF91BF91AF919F918F917F916F91D6
S11306205F914F913F912F910F900FBE0F901F90AC
S113063018951F920F920FB60F9211242F933F9388
S11306404F935F936F937F938F939F93AF93BF93D6
S1130650EF93FF93E091A400F091A500309709F087
S11306600995FF91EF91BF91AF919F918F917F91E8
S11306706F915F914F913F912F910F900FBE0F900B
S11306801F9018951F920F920FB60F9211242F935B
S11306903F934F935F936F937F938F939F93AF9306
S11306A0BF93EF93FF93E091A600F091A7003097DA
S11306B009F00995FF91EF91BF91AF919F918F91AF
S11306C07F916F915F914F913F912F910F900FBE4A
S11306D00F901F9018958EE790E00E94490089E7DB
S11306E090E00E94490084E790E00E944900089548
S11306F0823049F0833061F0813079F463E083E043
S11307000E947202089564E083E00E9472020895D8
S113071065E083E00E947202089580E008958FE608
S113072090E00E9449008AE690E00E94490085E634
S113073090E00E94490080E690E00E9449000895FC
S1130740CF93C82F482F417060E080E00E94F901E8
S1130750C1FB442740F961E080E00E94F901C2FB3B
S1130760442740F962E080E00E94F901C3FB44277A
S113077040F963E080E00E94F901CF91089581E09F
S11307800E947803882331F08091AA008F5F8093C0
S1130790AA00089582E00E947803882331F08091B2
S11307A0A9008F5F8093A900089583E00E947803D5
S11307B0882329F08091A8008F5F8093A800089572
S11307C08FB780688FBF0895CF93DF93CDB7DEB71F
S11307D0A7970FB6F894DEBF0FBECDBF0E94E0030B
S11307E0198283E08A838FEB93E09C838B831D8241
S11307F01E8281E08F831886198685E0E3E8F0E0A5
S1130800DE011A9601900D928A95E1F785E0E8E8F9
S1130810F0E0DE011F9601900D928A95E1F785E0E4
S1130820EDE8F0E0DE01549601900D928A95E1F72F
S113083085E0E2E9F0E0DE01599601900D928A9597
S1130840E1F785E0E7E9F0E0DE015E9601900D92C4
S11308508A95E1F785E0ECE9F0E0DE0193960190FA
S11308600D928A95E1F7CE0105960E944900CE01CA
S11308700A960E944900CE010F960E944900CE01BB
S113088044960E944900CE0149960E944900CE0137
S11308904E960E944900CE0183960E944900CE01E3
S11308A001960E94A0020E946B030E948F0380E0C5
S11308B00E94DE0241E064E080E00E94F90140E031
S11308C065E080E00E94F90140E066E080E00E947B
S11308D0F9018091AA000E94A0038DEE92E0019795
S11308E0F1F700C0000040E064E080E00E94F901FC
S11308F041E065E080E00E94F90140E066E080E0CC
S11309000E94F9018091A9000E94A0038DEE92E05B
S11109100197F1F700C00000CDCFF894FFCF9F
S113091E00030100000002010000000101000000BC
S113092E000100000305000000030400000003039F
S113093E000000000101000000020100000003019C
S113094E0000000401000000050100000006010083
S105095E000093
S9030000FC
