:020000040000FA
:060000000A128A11FC2F18
:10000800FA007708F9007908F2007A080A128A15C6
:1000180046260A128A117808F2000030031D803043
:10002800F3000A128A15EE250A128A1108008312B3
:100038000313AF002808AD002708AC002A08A10068
:100048002908A0002D08A3002C08A2000A128A156E
:10005800EF260A128A11831203132108AD00200823
:10006800AC000130AB002B08AF072C082D04031D92
:100078003E283F2822282F0884008313800101305E
:10008800AF022A08F1002908F0002808F300270821
:10009800F2000A128A15B5260A128A11700883120C
:1000A8000313AB002B08AE002A08A1002908A00002
:1000B8002808A3002708A2000A128A15EF260A12A8
:1000C8008A11831203132108A8002008A7000A3008
:1000D8002E02031C7028712875280730AB002B08E6
:1000E800AE073030AB002B08AE072E08AB002F0848
:1000F80084002B08831380000130AF0227082804EE
:10010800031D8728882845280130AB002B08AF0736
:100118000800031083120313600D610DE2006208EA
:10012800FC007C08031D99289A28A3280030E100C8
:100138000030E0000030DF000030DE0008295E08F3
:10014800E2005F08E3006008E4006108E5001F3092
:100158000310E50CE40CE30CE20CFF3E031DAC2895
:100168006208E6006608FB00E017FF30DE05FF3096
:10017800DF05FF30E0050030E1059630FC02FC1F8A
:10018800C628C728E1287C08803A973E0318CD285E
:10019800CE28CF289A2801300310E10CE00CDF0CA0
:1001A800DE0CFF3E031DD0280130E2006208FC0788
:1001B800031DDF28E028CF28F82820307C02031C04
:1001C800E628E728F3289A280130E2000310DE0D1C
:1001D800DF0DE00DE10DE20BEA280130FC027C089E
:1001E800031DF728F828E8287B080319FC28FD28B0
:1001F8000829DE09DF09E009E109DE0A0319DF0A37
:100208000319E00A0319E10A080083120313A40082
:1002180024080319102911292529FA1F1429152939
:1002280025297709A6007809A7007909A8007A097D
:10023800A900A60A0319A70A0319A80A0319A90AF3
:100248002D297A08A9007908A8007808A700770856
:10025800A6007A08790478047704031D342935291F
:100268003E290030FA000030F9000030F800003074
:10027800F700C4299630A0002008A50050290130B5
:10028800A0002008A50701300310A90CA80CA70C92
:10029800A60CFF3E031D4829FE302905031D5529DC
:1002A8005629432972290130A0002008A5070130EA
:1002B800A607003003180130A707003003180130E3
:1002C800A807003003180130A90701300310A90C52
:1002D800A80CA70CA60CFF3E031D6A29FF302905B0
:1002E800031D77297829572984290130A50201306F
:1002F800A0000310A60DA70DA80DA90DA00B7D2920
:10030800A81B872988298E290230250203188D29E0
:100318008E2979292518912992299A29FF30A6052D
:10032800FF30A7057F30A805FF30A9050310A50CED
:100338002508A000A101A201A30118300310A00DF7
:10034800A10DA20DA30DFF3E031DA2292008A6049E
:100358002108A7042208A8042308A90424080319CB
:10036800B629B729BC29FA1FBA29BB29BC29A9175C
:100378002908FA002808F9002708F8002608F700D5
:1003880008000A128A1519260A128A110A128A15F1
:1003980050250A128A110130F2008030F3000A1247
:1003A8008A15EE250A128A11F7010C3083120313FD
:1003B800E7006708F80001300A128A1104200A12BF
:1003C8008A11FF3083120313A0000330A10001300B
:1003D8000A128A157D260A128A117108F800700817
:1003E800F7001630F9000030FA000A128A157C2549
:1003F8000A128A11780883120313A3007708A2004F
:100408000A128A15EF260A128A1183120313210889
:10041800EC002008EB0000300A128A157D260A122B
:100428008A11700883120313E7007108E800E901D4
:10043800EA016A08FA006908F9006808F80067081C
:10044800F70000300A128A1109210A128A117A0863
:1004580083120313B1007908B0007808AF00770859
:10046800AE004030AD008430AC007A30AB00E130F3
:10047800AA000A128A119B240A128A1183120313F2
:100488002D08CB002C08CA002B08C9002A08C80070
:100498004430C7003B30C6008030C5000030C4007F
:1004A8000A128A11BE220A128A11831203134708FC
:1004B800E1004608E0004508DF004408DE000A12B3
:1004C8008A118D200A128A11831203135F08EE0025
:1004D8005E08ED000A30E7006708F20000300A12F3
:1004E8008A1546260A128A11831203136C08B8006B
:1004F8006B08B7000A128A1562250A128A110E3093
:1005080083120313E7006708F7001930E80068084A
:10051800F80000300A128A1104200A128A110A30DF
:1005280083120313E7006708F20001300A128A15E4
:1005380046260A128A11831203136E08B8006D0842
:10054800B7000A128A1562250A128A110E30831220
:100558000313E7006708F7001730E8006808F80099
:1005680001300A128A1104200A128A11E5290A1296
:100578008A110028831203134B088039CC004C08D9
:10058800D5004B08CC004C07CD004D08DC00CA1F35
:10059800CE2ACF2AD02A5C145C080319D42AD52A7B
:1005A800E52A5C0A031DD92ADA2AE22A0030CB00A0
:1005B8000030CA000030C9000030C800CA17CB019B
:1005C800ED2A0030CB000030CA000030C9000030EE
:1005D800C80047088039CC004C08D5064708CC002D
:1005E8004C07CD004D08DD00C61FFB2AFC2AFD2A5A
:1005F8005D145D080319012B022B122B5D0A031DE4
:10060800062B072B0F2B0030C7000030C600003028
:10061800C5000030C400C617C7011A2B0030C70038
:100628000030C6000030C5000030C400470846044A
:1006380045044404031D212B222B3B2B0030CB0007
:100648000030CA000030C9000030C8008030CA0439
:100658007F30CB045508CC004C08CB044B08C700AE
:100668004A08C6004908C5004808C4009A2C5C0816
:10067800031D3F2B402B492B0030C7000030C6001C
:100688000030C5000030C4009A2C5C08CC00CD01B5
:100698004D08CF005D084C02CE00031CCF034E0866
:1006A8007F3ED6004F080318013E003ED7004B0896
:1006B800D4004A08D3004908D2004808D1000030C5
:1006C800CB000030CA000030C9000030C80000303C
:1006D800DB000030DA000030D9000030D800DD013E
:1006E800BF2B5D080319792B7A2B9A2B0130CC008C
:1006F8000310D10DD20DD30DD40DCC0B7C2B0130B2
:10070800CC000310C80DC90DCA0DCB0DCC0B852B21
:10071800DB1F8F2B902B912B48140130CC0003103A
:10072800D80DD90DDA0DDB0DCC0B932B47085402ED
:10073800031DA82B46085302031DA82B4508520287
:10074800031DA82B44085102031CAB2BAC2BBB2B5D
:100758005B174408D1024508031C450FD20246081E
:10076800031C460FD3024708031C470FD40201306D
:10077800CC004C08DD071A305D02031CC42BC52BC6
:10078800752B54085304520451040319CC2BCD2B58
:10079800EC2B5814EC2B0130CC000310C80DC90DFC
:1007A800CA0DCB0DCC0BD12BDB1FDB2BDC2BDD2BB0
:1007B80048140130CC000310D80DD90DDA0DDB0D2B
:1007C800CC0BDF2BFF30D6070318D70AFF30D7072B
:1007D800CA1FEF2BF02BCF2BDD01DB1FF42BF52BE2
:1007E800112CFF305805CC00FF305905CD00FF30E3
:1007F8005A05CE007F305B05CF004F084E044D04EC
:100808004C040319082C092C0C2CDD01DD0A112CD1
:10081800481C0F2C102C112C092C5D080319152CC1
:10082800162C472C0130C807003003180130C907BF
:10083800003003180130CA07003003180130CB0715
:100848004B1C272C282C472C4808CC004908CD00E5
:100858004A08CE004B08CF000130D0004F0DCF0C16
:10086800CE0CCD0CCC0CD00B322C4F08CB004E0844
:10087800CA004D08C9004C08C8000130D607031843
:10088800D70A0030D7075708803AFF0080307F0228
:10089800031D502CFF305602031C532C542C622C81
:1008A800FF3083120313D6000030D7000030CB008E
:1008B8000030CA000030C9000030C800831203139A
:1008C8005708803AFF0080307F02031D6D2C0130ED
:1008D80056020318702C712C7E2C83120313D60138
:1008E800D7010030CB000030CA000030C90000300A
:1008F800C800D501831203135608CC004C08DC004D
:100908005C1C872C882C8A2CCA178E2C7F30CC0034
:100918004C08CA055C08CC0003104C0CCD004D08EF
:10092800CB005508CC004C08CB04322B08008312AE
:1009380003132D088039B2003208B7002D08B20021
:100948003207B3003308BD00AC1FAB2CAC2CAD2C68
:100958003D143D080319B12CB22CC12C3D0A031DCE
:10096800B62CB72CBF2C0030AD000030AC000030E6
:10097800AB000030AA00AC17C92C0030AD00003025
:10098800AC000030AB000030AA0031088039B2005A
:100998003208B7063108B2003207B3003308BC008A
:1009A800B01FD72CD82CD92C3C143C080319DD2CAB
:1009B800DE2CED2C3C0A031DE22CE32CEB2C003042
:1009C800B1000030B0000030AF000030AE00B0170A
:1009D800F52C0030B1000030B0000030AF0000301E
:1009E800AE003C080319F92CFA2CFF2C3D08031D16
:1009F800FE2CFF2C082D0030AD000030AC0000307C
:100A0800AB000030AA00FB2F2A08B2003208F00021
:100A180030080A128A15C7250A128A11710883122A
:100A28000313C3007008C2004208B200B301B40146
:100A3800B5013508BB003408BA003308B9003208DC
:100A4800B8004308B200B301B401B5013508C100CC
:100A58003408C0003308BF003208BE002B08B200BB
:100A68003208F0002F080A128A15C7250A128A11BF
:100A7800710883120313C3007008C2004208B20051
:100A8800B301B401B5013208B807330803110318DC
:100A9800013E0319502DB907340803110318013E0C
:100AA8000319572DBA07350803110318013E031916
:100AB8005E2DBB074308B200B301B401B50132088B
:100AC800BE07330803110318013E03196C2DBF0735
:100AD800340803110318013E0319732DC0073508A4
:100AE80003110318013E03197A2DC1072C08B2001F
:100AF8003208F0002E080A128A15C7250A128A1130
:100B0800710883120313C3007008C2004208B200C0
:100B1800B301B401B5013208B8073308031103184B
:100B2800013E0319982DB907340803110318013E33
:100B380003199F2DBA07350803110318013E03193D
:100B4800A62DBB074308B200B301B401B5013208B2
:100B5800BE07330803110318013E0319B42DBF075C
:100B6800340803110318013E0319BB2DC0073508CB
:100B780003110318013E0319C22DC1070830B20042
:100B88000310B80DB90DBA0DBB0DB20BC42D2B084F
:100B9800B2003208F0002E080A128A15C7250A1278
:100BA8008A11710883120313C3007008C200420837
:100BB800B2004308B300B401B5013208B8073308DE
:100BC80003110318013E0319EA2DB907340803116C
:100BD8000318013E0319F12DBA073508031103184C
:100BE800013E0319F82DBB072A08B2003208F000AD
:100BF8002F080A128A15C7250A128A11710883124A
:100C08000313C3007008C2004208B2004308B300CF
:100C1800B401B5013208B807330803110318013EBF
:100C28000319172EB907340803110318013E0319D5
:100C38001E2EBA07350803110318013E0319252E85
:100C4800BB070830B2000310B80DB90DBA0DBB0DC3
:100C5800B20B272E2A08B2003208F0002E080A121A
:100C68008A15C7250A128A11710883120313C30053
:100C78007008C2004208B2004308B300B401B501CD
:100C88003208B807330803110318013E03194D2E23
:100C9800B907340803110318013E0319542EBA0783
:100CA800350803110318013E03195B2EBB072B08F7
:100CB800B2003208F00030080A128A15C7250A1255
:100CC8008A11710883120313C3007008C200420816
:100CD800B2004308B300B401B5013208BE073308B7
:100CE80003110318013E03197A2EBF0734080311B4
:100CF8000318013E0319812EC00735080311031894
:100D0800013E0319882EC1072C08B2003208F000F2
:100D18002F080A128A15C7250A128A117108831228
:100D28000313C3007008C2004208B2004308B300AE
:100D3800B401B5013208BE07330803110318013E98
:100D48000319A72EBF07340803110318013E03191E
:100D5800AE2EC007350803110318013E0319B52E3E
:100D6800C1072C08B2003208F00030080A128A15B0
:100D7800C7250A128A11710883120313C300700869
:100D8800C2004208B2004308B300B401B5010830FC
:100D98000310B20DB30DB40DB50DFF3E031DCC2EDF
:100DA8003208BE07330803110318013E0319DD2E6C
:100DB800BF07340803110318013E0319E42EC007C6
:100DC800350803110318013E0319EB2EC107380833
:100DD800B2003908B3003A08B4003B08B50018302F
:100DE8000310B50CB40CB30CB20CFF3E031DF42E6B
:100DF8003208BE07330803110318013E0319052FF3
:100E0800BF07340803110318013E03190C2FC0074C
:100E1800350803110318013E0319132FC1070830C1
:100E2800B2000310B80DB90DBA0DBB0DB20B152FDA
:100E38003D083C07B200B301B30D3208823EC20040
:100E480033080318013EFF3EC300472F0130B200AC
:100E58000310BE0DBF0DC00DC10DB20B2C2FBB1F53
:100E6800362F372F382F3E140130B2000310B80D3B
:100E7800B90DBA0DBB0DB20B3A2FFF30C2070318DC
:100E8800C30AFF30C307C01F4A2F4B2F2A2FBC01AC
:100E9800BB1F4F2F502F6C2FFF303805B200FF308B
:100EA8003905B300FF303A05B4007F303B05B50083
:100EB80035083404330432040319632F642F672F71
:100EC800BC01BC0A6C2F3E1C6A2F6B2F6C2F642F41
:100ED8003C080319702F712FA22F0130BE07003074
:100EE80003180130BF07003003180130C007003075
:100EF80003180130C107411C822F832FA22F3E08FF
:100F0800B2003F08B3004008B4004108B500013002
:100F1800B600350DB50CB40CB30CB20CB60B8D2F56
:100F28003508C1003408C0003308BF003208BE00CD
:100F38000130C2070318C30A0030C3074308803AC8
:100F4800FF0080307F02031DAB2FFF304202031CDD
:100F5800AE2FAF2FBA2F7F3083120313C10080301A
:100F6800C0000030BF000030BE00EF2F8312031313
:100F78004308803AFF0080307F02031DC52F0130EF
:100F880042020318C82FC92FD52F0030831203132C
:100F9800C1000030C0000030BF000030BE00B70103
:100FA800EF2F831203134208B2003208BD00FF304E
:100FB800BE05FF30BF057F30C0050030C1053D1CB0
:100FC800E62FE72FE82FC0173D08B2000310320CB8
:100FD800B3003308C1003708B2003208C104410821
:100FE800AD004008AC003F08AB003E08AA0008006E
:100FF80083010A128A11C529FF1B0A2883137F1847
:1010080083170008840A0319FF0A080008308A00B9
:101018000408840A8207003476346F346C347434DC
:1010280061346734653420343A342034003463340E
:1010380075347234723465346E34743420343A340E
:0C104800203400344134003456340034AD
:101AA000831603131F13831203139F131F179F1211
:101AB0001F129F118030831603139F00831203139C
:101AC0001F140800831203133808B1003708B00050
:101AD0000A30B2000030B30039300A128A15A1254D
:101AE0000A128A153930F2000030F3000A128A1502
:101AF000EE250A128A150800FB01FC01771C812DD6
:101B0000822D882D7908FB070318FC0A7A08FC0748
:101B100001300310F90DFA0DFF3E031D892D013030
:101B20000310F80CF70CFF3E031D902D7708780486
:101B3000031D9B2D9C2D7E2D7C08F8007B08F70053
:101B4000080083120313B600B11FA72DA82DB82DCE
:101B50002D30B4003608840034088313800001302F
:101B6000B4003408B607B009B109B00A0319B10AC4
:101B70003108A8003008A7003308AA003208A900DD
:101B800036080A128A111B200A128A150800F8006A
:101B9000F401F5017008F200F3017208F600730811
:101BA000F700781CD42DD52DDB2D7608F40703180B
:101BB000F50A7708F50701300310F60DF70DFF3E23
:101BC000031DDC2D0310F80C7808031DE82DE92D0A
:101BD000D12D7508F1007408F0000800F501052EFC
:101BE00075087207840073080318730AFF000A124D
:101BF0008A1500200A128A150A128A1535270A1238
:101C00008A150130F4007408F5077508720784001E
:101C100073080318730A83120313FF000A128A154C
:101C200000200A128A15003A031D172E182EF02DD7
:101C30000800FE30F2007208831603138605FD309B
:101C4000F20072088605FB30F2007208860506086D
:101C5000F039FF3AF2007208860502300A128A153E
:101C600099270A128A1528300A128A1599270A120A
:101C70008A150C300A128A1599270A128A15013022
:101C80000A128A1599270A128A150800F5005F2E94
:101C90007208F3007308F600752E7208403EF300D8
:101CA0007308F600752E7208103EF3007308F600F4
:101CB000752E7208503EF3007308F600752E7508F5
:101CC000F300F4017408003A0319672E752E7308A7
:101CD000003A0319482E013A03194D2E033A03190D
:101CE000532E013A0319592E752E760880380A12A0
:101CF0008A1599270A128A150800F4007408F20060
:101D000003300310F20DFF3E031D812E38307205A3
:101D1000F300831203131F08C73973049F000930AF
:101D2000F200F20B912E942E831203131F151F192C
:101D30009A2E9B2E972E831603131E08F200F30192
:101D40007208F5007308F600831203131E08F200F0
:101D5000F3017208F300F2017208F5047308F60447
:101D60007608F1007508F000080070087104031986
:101D7000BA2EBB2EEA2EF501F50AC92E013003104A
:101D8000F00DF10DFF3E031DBF2E0130F40074086D
:101D9000F507F11FCC2ECD2EBE2E71087302031D48
:101DA000D32E70087202031CD62ED72EDD2E70089B
:101DB000F2027108031CF303F30201300310F10C6B
:101DC000F00CFF3E031DDE2E0130F502031DE92E4F
:101DD000EA2ECD2E7308F1007208F000080083127D
:101DE0000313A401A501200821040319F82EF92EDC
:101DF000302FA601A60A072F01300310A00DA10D58
:101E0000FF3E031DFD2E0130FD007D08A607A11F2A
:101E10000A2F0B2FFC2E01300310A40DA50DFF3E41
:101E2000031D0C2F21082302031D182F2008220256
:101E3000031C1B2F1C2F232F2008A2022108031C88
:101E4000A303A302241401300310A10CA00CFF3E35
:101E5000031D242F0130A602031D2F2F302F0B2F1F
:101E60002508A1002408A0000800F1008312031334
:101E70000614FD30F00070088605C730F000402FD2
:101E8000F00B3F2F432F442F831203130615C73047
:101E9000F0004A2FF00B492F4D2F4E2FF0307105D7
:101EA000F0008312031306080F3970048600C73050
:101EB000F0005A2FF00B592F5D2F5E2FFB30F000F2
:101EC0007008831203138605C730F000672FF00BEC
:101ED000662F6A2F6B2F831203130615C730F0008D
:101EE000712FF00B702F742F752F71080F39F000C0
:101EF00004300310F00DFF3E031D792F83120313EE
:101F000006080F3970048600C730F000872FF00BE9
:101F1000862F8A2F8B2FFB30F0007008831203135B
:101F20008605C730F000942FF00B932F972F982F32
:101F30000800F100FE30F0007008831203138605DC
:101F4000FD30F00070088605C730F000A72FF00BB9
:101F5000A62FAA2FAB2F831203130615C730F0004C
:101F6000B12FF00BB02FB42FB52FF0307105F0006A
:101F70008312031306080F3970048600C730F0007F
:101F8000C12FF00BC02FC42FC52FFB30F0007008FD
:101F9000831203138605C730F000CE2FF00BCD2F30
:101FA000D12FD22F831203130615C730F000D82F7C
:101FB000F00BD72FDB2FDC2F71080F39F000043026
:101FC0000310F00DFF3E031DE02F831203130608DC
:101FD0000F3970048600C730F000EE2FF00BED2FA4
:101FE000F12FF22FFB30F0007008831203138605E7
:101FF000C730F000FB2FF00BFA2FFE2FFF2F080049
:02400E00F33F7E
:00000001FF
