:020000040000FA
:100000000A128A11EE2F00308A000408840A82073F
:100010000034413454342B3443344D344734463463
:100020003D3431340034413454342B344334473478
:0E0030004D3453343D340034413454340034E4
:1009A4000A128A11D8240A128A1108008316031322
:1009B4001815673099001812831203139817181327
:1009C40083160313071787178312031318160800D7
:1009D400FB007808FA007A08F3007B080A128A11EF
:1009E4008A250A128A1179080A128A113F250A12E5
:1009F4008A1108007E088A007F0882000A128A1180
:100A0400FC240A128A118000840A04087D06031952
:100A14000034FF0A0319FE0A002D0130F0000030F3
:100A2400831203138C1A0130013E1A2D0310F00DAA
:100A3400FF3E031D182D70080C050319222D232DCC
:100A44000F2D1A0808006D346F3473347434613414
:100A5400663461340034003400340034003400342B
:100A64006D346F34683461346D3465346434003407
:100A740000340034003400340034F500F401512D06
:100A840074087507F3007308840000080A128A11B9
:100A940018260A128A110130F3007308F407740847
:100AA4007507F3007308840083130008031D5B2D8E
:100AB4005C2D422D0800FE30F300730883160313E7
:100AC4008605FD30F30073088605FB30F3007308D8
:100AD40086050608F039FF3AF300730886050230EC
:100AE4000A128A118A260A128A1128300A128A11D5
:100AF4008A260A128A110C300A128A118A260A12CC
:100B04008A1101300A128A118A260A128A110800EF
:100B1400F600A32D7308F4007408F700B92D7308C8
:100B2400403EF4007408F700B92D7308103EF40039
:100B34007408F700B92D7308503EF4007408F700E8
:100B4400B92D7608F400F5017508003A0319AB2DA8
:100B5400B92D7408003A03198C2D013A0319912D0B
:100B6400033A0319972D013A03199D2DB92D7708DE
:100B740080380A128A118A260A128A1108000A1277
:100B84008A11D2240A128A110A128A115D250A12C4
:100B94008A11243084004B3083120313A00004080C
:100BA400A1000D30A2002008840083130008A300D4
:100BB400A00A2108840023088000A10AA20BD52DD5
:100BC400313084003E30A0000408A1000D30A200A2
:100BD4002008840083130008A300A00A21088400CD
:100BE40023088000A10AA20BEA2D3130A0002008BE
:100BF400F40024300A128A11FF260A128A113130B5
:100C04000A128A113F250A128A11F801243083122C
:100C14000313A0002008F90001300A128A11EA2403
:100C24000A128A11142E0A128A110028F200831261
:100C340003130614FD30F000700886050630F10039
:100C44003030F000F00B242EF10B242E0000831220
:100C5400031306150630F1003030F000F00B302E8F
:100C6400F10B302E0000F0307205F00083120313F4
:100C740006080F39700486000630F1003030F000A9
:100C8400F00B422EF10B422E0000FB30F0007008F6
:100C94008312031386050630F1003030F000F00BA8
:100CA400512EF10B512E000083120313061506304A
:100CB400F1003030F000F00B5D2EF10B5D2E0000E2
:100CC40072080F39F00004300310F00DFF3E031DCD
:100CD400662E8312031306080F397004860006304B
:100CE400F1003030F000F00B752EF10B752E000082
:100CF400FB30F00070088312031386050630F10000
:100D04003030F000F00B842EF10B842E000008002C
:100D1400F200FE30F0007008831203138605FD30E4
:100D2400F000700886050630F1003030F000F00B5A
:100D3400992EF10B992E0000831203130615063029
:100D4400F1003030F000F00BA52EF10BA52E0000C1
:100D5400F0307205F0008312031306080F39700493
:100D640086000630F1003030F000F00BB72EF10BA6
:100D7400B72E0000FB30F0007008831203138605C1
:100D84000630F1003030F000F00BC62EF10BC62E09
:100D940000008312031306150630F1003030F00012
:100DA400F00BD22EF10BD22E000072080F39F00096
:100DB40004300310F00DFF3E031DDB2E83120313DA
:100DC40006080F39700486000630F1003030F00058
:100DD400F00BEA2EF10BEA2E0000FB30F000700855
:100DE4008312031386050630F1003030F000F00B57
:100DF400F92EF10BF92E00000800F7000A128A11EF
:100E04005D250A128A110A128A110F250A128A1103
:100E1400F5007508FA0024307A06031D122F132FEB
:100E2400052F24307A06031D182F192FED2F0A12CF
:100E34008A110F250A128A11F5007508FA00473045
:100E44007A06031D262F272FED2F0A128A110F254C
:100E54000A128A11F5007508FA0050307A06031D4B
:100E6400342F352FED2F0A128A110F250A128A11F9
:100E7400F5007508FA0052307A06031D422F432FFD
:100E8400ED2F0A128A110F250A128A11F50075082E
:100E9400FA004D307A06031D502F512FED2F0A1200
:100EA4008A110F250A128A11F5007508FA004330D9
:100EB4007A06031D5E2F5F2FED2F0A128A110F256C
:100EC4000A128A11F5007508FA002C307A06031DFF
:100ED4006C2F6D2FED2F0A128A110F250A128A1119
:100EE400F5007508FA0041307A06031D7A2F7B2F2E
:100EF4006D2F0A128A110F250A128A11F50075083E
:100F0400FA000A128A110F250A128A11F5007508CF
:100F1400FA00F8012C307A06031D912F922F932F9B
:100F2400AA2F7A08F50078087407F600760884007A
:100F34007508831380000A128A110F250A128A1178
:100F4400F5007508FA000130F5007508F8078C2FD4
:100F54000A128A110F250A128A11F5007508FA007F
:100F64004E307A06031DB72FB82FED2F0A128A11BF
:100F74000F250A128A11F5007508FA002C307A063A
:100F8400031DC52FC62FED2F0A128A110F250A1231
:100F94008A11F5007508FA00F9012C307A06031D50
:100FA400D42FD52FD62FED2F7A08F500790877079F
:100FB400F600760884007508831380000A128A11EB
:100FC4000F250A128A11F5007508FA000130F500A0
:100FD4007508F907CF2F080083135830FD0005303A
:100FE400FE002530FF003E3084000A128A110025DD
:0C0FF4000A128A1183010A128A11C12D11
:02400E00F33F7E
:00000001FF
